:020000040800F2
:10000000C862002031030008672900088920000821
:10001000652900081D0E0008C552000800000000F8
:10002000000000000000000000000000790200084D
:100030005513000800000000CD0200084D3D0008E7
:100040004B0300084B0300084B0300084B03000858
:100050004B0300084B0300084B0300084B03000848
:100060004B0300084B0300084B0300084B03000838
:100070004B0300084B0300084B0300084B03000828
:100080004B0300084B0300084B0300084B03000818
:10009000ED0F00084B0300084B0300084B0300085A
:1000A0004B0300084B0300084B0300084B030008F8
:1000B0006140000871400008854000084B030008BB
:1000C0004B0300084B0300084B0300084B030008D8
:1000D0004B030008D54B0008F54D0008C55000083B
:1000E0004B0300084B0300084B030008AD40000819
:1000F000654400084B030008C14000084B0300089A
:100100004B0300084B030008994000084B0300080C
:100110004B030008154A00084B0300084B03000876
:100120004B0300084B0300084B0300084B03000877
:100130004B0300084B0300084B0300084B03000867
:100140004B0300084B0300084B0300084B03000857
:100150004B0300084B0300084B0300084B03000847
:100160004B0300084B0300084B0300084B03000837
:100170004B0300084B0300084B0300084B03000827
:100180004B0300084B03000800F002F800F064F88D
:100190000AA090E8000C82448344AAF10107DA45E2
:1001A00001D100F059F8AFF2090EBAE80F0013F0D0
:1001B000010F18BFFB1A43F001031847F4B3000006
:1001C00014B400000A444FF0000C10F8013B13F087
:1001D000070408BF10F8014B1D1108BF10F8015BA0
:1001E000641E05D010F8016B641E01F8016BF9D193
:1001F00013F0080F1EBF10F8014BAD1C0C1B09D1EA
:100200006D1E58BF01F801CBFAD505E014F8016B5B
:1002100001F8016B6D1EF9D59142D6D370470000ED
:100220000023002400250026103A28BF78C1FBD8FF
:10023000520728BF30C148BF0B607047642900F0E7
:100240000381732900F03E82002070471FB509F03A
:1002500090FE1FBD10B510BD00F0B0FA1146FFF7BB
:10026000F5FF06F043F900F0CEFA03B4FFF7F2FF12
:1002700003BC05F065FF00002A4B19680868B0E868
:10028000F04F80F30988BFF36F8F4FF0000080F3C9
:10029000118870470000000006480068006880F37D
:1002A000088862B661B6BFF34F8FBFF36F8F00DF70
:1002B00000BF00BF08ED00E0DFF80C00016841F46A
:1002C00070010160704700BF88ED00E0EFF3098026
:1002D000BFF36F8F134B1A681EF0100F08BF20ED8D
:1002E000108A20E9F04F106008B44FF0500080F3FE
:1002F0001188BFF34F8FBFF36F8F08F0EBF94FF00A
:10030000000080F3118808BC19680868B0E8F04F55
:100310001EF0100F08BFB0EC108A80F30988BFF3FD
:100320006F8F70471C010020EFF3058070470000BD
:100330000948804709480047FEE7FEE7FEE7FEE779
:10034000FEE7FEE7FEE7FEE7FEE7FEE704480549B5
:10035000054A064B70470000613D0008890100080E
:10036000C85C0020C8620020C85E0020C85E002073
:10037000704700000FB4044910B503AA029800F0BA
:10038000A5F910BC5DF814FB080100202DE9F0412F
:100390000E460446002020622046E168884730B3BC
:1003A000252805D0D4E901219047206A401CF2E7B6
:1003B000E168204600278847050018D0A5F14100D4
:1003C000192802D820354FF40067324629462046C6
:1003D0002760FFF733FF40B1012804D0F61D26F057
:1003E00007060836D8E7361DD6E72846DAE7206A3A
:1003F000BDE8F08170B50C460546012A05D0287885
:10040000800600D5EA69002302E0012305E05B1CB9
:10041000934202D2E05C0028F9D1A869E618C01A1C
:10042000A861286A184428622846AFF3008004E0D7
:10043000D5E9012114F8010B9047B442F8D32846BE
:10044000AFF3008070BD00002DE9F04106460024A6
:1004500010687529314616A510D0AFF3008000282A
:1004600002DA404213A507E031688A0701D512A5D8
:1004700002E0490704D511A5012401E0AFF3008093
:1004800000210A2206F1240709E0B0FBF2FCB0FBD0
:10049000F2F302FB1C00303078541846491C002847
:1004A000F3D123462A463046BDE8F04100F086B835
:1004B000000000002D0000002B00000020000000C4
:1004C000032A40F2308010F0030C00F0158011F880
:1004D000013BBCF1020F624498BF11F801CB00F858
:1004E000013B38BF11F8013BA2F1040298BF00F8AC
:1004F00001CB38BF00F8013B11F0030300F0F88096
:10050000083AC0F0088051F8043B083A51F804CB8F
:10051000A0E80810F5E7121D5CBF51F8043B40F855
:10052000043BAFF30080D20724BF11F8013B11F860
:1005300001CB48BF11F8012B24BF00F8013B00F8A4
:1005400001CB48BF00F8012B704702F0FF0343EADC
:10055000032242EA024200F002B84FF000020429EE
:10056000C0F0128010F0030C00F0F680CCF1040C07
:10057000BCF1020F18BF00F8012BA8BF20F8022B16
:10058000A1EB0C0100F0E8B85FEAC17C24BF00F8E1
:10059000012B00F8012B48BF00F8012B7047704772
:1005A00070477047704710B500F0FCF8006810BD48
:1005B00010B5044600F0F6F8046010BD2DE9F047D0
:1005C0000D4699469246044600F1240801688806C3
:1005D00004D5E06921F01001216000E00120A8426B
:1005E00001DD471B00E00027A1697A1902EB090031
:1005F000081AA0612078C00602D42046AFF300801C
:10060000002608E0D4E901211AF806009047206A84
:10061000401C761C20624E45F4DB2078C0060AD5CB
:100620002046AFF3008006E0D4E901213020904756
:10063000206A401C2062381EA7F10107F4DC07E0A5
:10064000D4E9012118F805009047206A401C206277
:10065000281EA5F10105F3DC2046AFF300802078C9
:10066000000602D50220BDE8F0870120FBE700006C
:1006700001694A1C02610878704700B58FB0CDE966
:1006800001310021059105497944CDE90310114656
:100690006846FFF77BFE0FB000BD0000E5FFFFFFDF
:1006A00010B5436913B1AFF3008001E0FFF7A2FE7C
:1006B000012010BD127800F124010A7000224A7056
:1006C0000122EDE711684FF0FF32E9E7074B70B503
:1006D0000D467B44FFF7D1FF0446284600F066F83C
:1006E00010B14FF0FF3070BD204670BDC35D0000FB
:1006F00010B5203AC0F00B80B1E81850203AA0E8BD
:100700001850B1E81850A0E81850BFF4F5AF5FEAF0
:10071000027C24BFB1E81850A0E8185044BF18C9A3
:1007200018C0BDE810405FEA827C24BF51F8043B4A
:1007300040F8043B08BF7047D20728BF31F8023B9E
:1007400048BF11F8012B28BF20F8023B48BF00F832
:10075000012B70474FF0000200B5134694469646B1
:10076000203922BFA0E80C50A0E80C50B1F12001C4
:10077000BFF4F7AF090728BFA0E80C5048BF0CC072
:100780005DF804EB890028BF40F8042B08BF7047D0
:1007900048BF20F8022B11F0804F18BF00F8012B42
:1007A0007047000000487047645C0020007B00F048
:1007B0008000704700487047645C00207546FFF772
:1007C000F9FFAE4605006946534620F0070085460E
:1007D00018B020B5FFF7BAFDBDE820404FF0000685
:1007E0004FF000074FF000084FF0000B21F0070119
:1007F000AC46ACE8C009ACE8C009ACE8C009ACE85C
:10080000C0098D46704710B50446AFF300802046FE
:10081000BDE81040FFF729BD0029816802D041F0F2
:10082000010101E021F0010181607047084B10B522
:10083000D3F8042307490A40D0E900142143D0E942
:100840000240044321431143C3F8041310BD0000C8
:1008500000200140E030FCFFC06C80B270470246CF
:10086000002012680A4200D00120704730B542686B
:100870000F4B0C791A400B6842EA04221343436081
:1008800082680C4B4D791A40D1E9034323438C68AD
:1008900044EA4504234313438360C26A097D22F47A
:1008A0007002491EC9B242EA0151C16230BD000066
:1008B000FFFEFFFCFDF7FFC070B5072609290AD926
:1008C000C568A1F10A0404EB4404A640B543A34063
:1008D0001D43C56007E0056901EB4104A640B5432F
:1008E000A3401D4305611F23072A09D2446B521EF2
:1008F00002EB820293409C4391400C43446370BDE1
:100900000D2A09D2046BD21F02EB820293409C4352
:1009100091400C43046370BDC46A0D3A02EB82023D
:1009200093409C4391400C43C46270BD816841F088
:1009300080418160704700007FB54D48D0ED000ACE
:100940009FED4C1A9FED4C0A10EE810AF3EE0B0A54
:1009500080EE201ABDEEC10A10EE103A642B00DDC5
:1009600064234648D0ED000A9FED450A60EE800AF8
:10097000FDEEE00A10EE900A002800DA40424149FC
:10098000D1ED000A60EE800AFDEEE00A10EE901A4A
:10099000002900DA49423C4C2278A2B100222270A0
:1009A0003A4C2578012D10D0394DB5F90440EAB301
:1009B000B5F90220B5F9001004B02346BDE8704037
:1009C00034A0FFF7D7BC0122E9E73648D0ED000A92
:1009D0003548BDEEE01AD0ED000A3448FDEEE01ACD
:1009E000D0ED000A3248BDEEE02AD0ED002ADFED5E
:1009F000310A314872EEA02A62EE802AFDEEE22A28
:100A0000CDED002A8DED012ACDED021A8DED031AF0
:100A100090ED001A294831EE201A21EE001ABDEEA1
:100A2000C11A11EE103A90ED001A00E018E031EE14
:100A3000201A234821EE001ABDEEC11A11EE102A29
:100A400090ED001A1FA071EE200A20EE800ABDEE84
:100A5000C00A10EE101AFFF78DFC002020707FBD39
:100A6000CAB2C1B21EA00094FFF784FC7FBD000093
:100A70001800002000007A4400401C46EC5B002077
:100A80000000C842005C0020B802002003020020E1
:100A9000D80200207B4225643A25643A25647D24EF
:100AA00000000000A00100209C0100209401002013
:100AB000B4010020C3F5C83FB0010020AC01002004
:100AC000A80100207B4325643A25643A25643A2531
:100AD000643A25643A25643A25647D2400000000C8
:100AE0007B4125643A25643A25643A25647D2400D7
:100AF00030B58DB00121022002F022FD01210D024E
:100B0000284602F035FD032002218DF82C000A91C1
:100B100000248DF82F400AA9134801F01FF8012185
:100B2000284602F031FD0021284602F02DFD0694F2
:100B300068020994CDE9070406A8FFF777FE8DF84F
:100B4000044000948DF80540029404940120074C61
:100B50008DF8140069462046FFF788FE01212046E3
:100B6000FFF75AFE0DB030BD0004024000200140E6
:100B700070B58CB00121022002F0E2FC01214E028E
:100B8000304602F0F5FC03208DF82C0001250024EE
:100B90000A958DF82F400AA9134800F0DFFF0121C4
:100BA000304602F0F1FC0021304602F0EDFC0694E4
:100BB00068040994CDE9070406A8FFF737FE8DF80D
:100BC000044000948DF8054002940494074C8DF87D
:100BD000145069462046FFF749FE01212046FFF7E1
:100BE0001BFE0CB070BD000000040240002101405B
:100BF00086B005F05DFC774C774D784EDFF8E0B1BC
:100C0000784FDFF8E481DFF8E491DFF8E4A10490A5
:100C10000A2104A807F08CFB764940F6B8324868F0
:100C2000904201DA401C486001F062F972480068A5
:100C3000012801D102F09EFE704800680028E7D12B
:100C40006F48007810B101F007F810E06D480078A7
:100C500010B102F06BFA0AE06B4890ED001A6B4895
:100C6000D0ED000A6A4890ED000A00F075FB01F033
:100C7000B7FC00F03FFC674890ED000ABDEEC00AEB
:100C800010EE100A03F09EFE40B10020009001908B
:100C9000029003460246014603906BE0D4ED020A3F
:100CA00094ED000A01F08EFB00EE100AB8EEC00AC7
:100CB00084ED010AD5ED020A95ED000A01F0C0FBB2
:100CC00000EE100AB8EEC00A85ED010AD6ED020A60
:100CD00096ED000A01F0F2FB00EE100A5B46B8EE5A
:100CE000C00A86ED010ADBED020A9BED000A01F065
:100CF00023FC00EE100A44F23C10B8EEC00A83ED6B
:100D0000010A01F0A7FC44480078B0B3012835D0AF
:100D1000022894D1D8ED000ADAED001A97ED000A06
:100D2000BDEEE01AD9ED000AFDEEE11ABDEEC00AF3
:100D3000FDEEE00ACDED001ACDED010A8DED021AAF
:100D40008DED030A93ED010ABDEEC00A10EE103AD4
:100D500096ED010ABDEEC00A10EE102A95ED010ACB
:100D6000BDEEC00A10EE101A94ED010ABDEEC00AE5
:100D700010EE100A02F0F6FE4AE7FFE7DAED001A7D
:100D800099ED001AD8ED000A97ED000AFDEEE11A80
:100D9000BDEEC11AFDEEE00ABDEEC00ACDED001AAF
:100DA0008DED011ACDED020A8DED030A93ED010AD6
:100DB000BDEEC00A10EE103A96ED010AB1EE400AFF
:100DC000BDEEC00A10EE102A95ED010AB1EE400A00
:100DD000C6E70000EC5B0020005C0020145C0020F3
:100DE000285C0020D4000020D0000020CC0000208F
:100DF000C800002018020020FC000020BC010020D8
:100E0000A5010020A4010020D4010020D001002071
:100E1000CC0100201800002091010020FEE7000016
:100E20001CB50121402002F08BFB4FF400600090C4
:100E300001208DF8040000218DF8061003218DF8A3
:100E400005108DF807006946014800F087FE1CBDBB
:100E5000001802402DE9FE4F0024D8B3D1B3CAB325
:100E6000C3B3401E491EC7B2CEB2521E5B1E02F073
:100E7000FF099DB20121082002F062FB0121480612
:100E800002F06AFB02218DF804104FF0030B4FF0C3
:100E900000088DF806808DF805B04FF0010ACDF8F6
:100EA00000B08DF807A069464D4800F057FE0922B2
:100EB00000214B4800F08EFE09220121484800F035
:100EC00089FE4848C0F80080016841F001010160D6
:100ED000021D09E0FFE70120BDE8FE8F641CA4B2FB
:100EE000642C01D90220F7E71168C907F6D03D4804
:100EF000016801600168016001680160016841F0FA
:100F000010010160016801600168016035494346D4
:100F10001C31C1F80080D1F80080DDF830C048EA0B
:100F20008C7CC1F800C0D1F800C04CEA07670F60A4
:100F30000F6847EA06560E600F6847EA09460E60DA
:100F40000E682E430E60016821F0010101604FF62A
:100F5000F07005E0641CA4B2844201D90320BBE711
:100F60001168C907F6D12048016841F0010101600C
:100F70001D491C310A6822F001020A601A4A0C322B
:100F8000146844F001041460021D14681460164AC9
:100F9000143214681460144A40321360121D136036
:100FA0000A6842F001020A60016803600D481430CB
:100FB000016841F00201016014208DF808008DF8ED
:100FC00009A08DF80AB08DF80BA002A801F0CCFCA6
:100FD00001220221034800F06DF900207CE70000A7
:100FE000000C0240006400400066004000B588B07C
:100FF00002A907A8CDE9000106AB05AA04A90020B3
:1010000000F060F80498A0F58071813941D122493F
:1010100001200870214900200870214908702149E9
:1010200008702149087021490870214908709DF80D
:1010300009009DF8081000EB012000B200EE100A34
:101040001D48F8EEC00A9FED1B0A80EE801A80ED65
:10105000001A9DF80B009DF80A1000EB012000B269
:1010600000EE900A1548F8EEE00A80EE801A80ED56
:10107000001A9DF80D009DF80C1000EB012000B245
:1010800000EE900A0E48F8EEE00A80EE801A80ED3D
:10109000001A08B000BD0000A7010020A401002034
:1010A000A6010020A5010020EC010020ED01002098
:1010B000B402002000007A44CC010020D0010020BE
:1010C000D4010020F0B5224CDDE9057504EB0014D5
:1010D000D4F8B06516F004061670D4F8B02532D0F6
:1010E000D2080A60D4F8B01501F002011970D4F8E2
:1010F000B41501F00F013970D4F8B8152970D4F87F
:10110000B815090A6970D4F8B815090CA970D4F893
:10111000B815090EE970D4F8BC152971D4F8BC15BE
:10112000090A6971D4F8BC15090CA971D4F8BC1569
:10113000090EE97148B1012804D10648016841F05F
:1011400020010160F0BD520DCBE70248001FF5E71A
:10115000006000401064004038B50024009108236E
:101160002246214600F014F8054640F6FF7301E0E0
:10117000641CA4B2284600F06BF8072801D09C42FA
:10118000F6D39C4201D3012038BD002038BD0000B9
:10119000F0B506462C48059D0468640101D5002081
:1011A00008E00468240101D5012003E00068C000C4
:1011B00046D50220254C002704EB0014C4F88075A6
:1011C000E9B3F600D4F880753743C4F88075D4F8D5
:1011D000806546EA8101C4F88015D4F8801541EA9B
:1011E0004201C4F88015D4F8842503F00F0122F0E1
:1011F0000F02C4F88425D4F884250A43C4F8842552
:101200002979EA796B7941EA0261AA79120442EA02
:1012100003221143C4F88C152978EA786B7841EAE7
:101220000261AA78120442EA03221143C4F8881525
:10123000D4F8801541F00101C4F88015F0BD01E03B
:10124000FF20FBE77605BDE7086400400060004032
:10125000174928B1012810D002281BD0052070475B
:1012600008680A6800F0010002F002020243086800
:1012700000F0806042EA1060704708680A6800F079
:10128000010002F002020243086800F0006042EA36
:101290005060704708680A6800F0010002F002021E
:1012A0000243086800F0805042EA906070470000F6
:1012B00008640040002A426901D00A4300E08A43E2
:1012C000426170477CB5144C00206D46215C295466
:1012D000401CC0B20828F9D3294640F20110FFF79C
:1012E0003BFF00202118097A2954401CC0B208286D
:1012F000F8D369464FF48170FFF72EFF00202118C4
:10130000097C2954401CC0B20828F8D3694640F231
:101310000310FFF721FF7CBD6607002030B50346B0
:101320000020012908D10022094C03E0A55C684097
:10133000521CD2B29A42F9D3002908D1044A32325F
:1013400003E0545C6040491CC9B29942F9D330BDF6
:1013500066070020704700002DE9F0415C4FDFF880
:1013600074815D4E38785D4B5D4A5E4C5E4DB0EEEB
:101370000C4AB8EE0C3A50B902F03CFC5B4890EDD8
:10138000000A90ED012A90ED021A387878B3C0B2C5
:10139000F6EE000A012854D002287DD1D6ED001ABD
:1013A00061EE211AB0EE401A01EEE01A01EEA00A39
:1013B000F0EE430A83ED021AB0EE412A82ED020AF2
:1013C000B0EE441AB0EE420A06F050FC83ED020A79
:1013D00092ED020AB0EE441AF0EE430A06F046FC23
:1013E00082ED020A9FED420A84ED020A6BE0FFE7FC
:1013F00072EE002AD8ED001AD6ED003A30EE420A1D
:10140000F0EE620A71EEA31AB0EE402A41EE612AB4
:1014100001EE612A41EE210A01EE210AF0EE431AA3
:10142000C3ED022A82ED022AC4ED020AF0EE623A0E
:1014300085ED020AB0EE441AF0EE610AB0EE630ADE
:101440001FE0D6ED001A98ED002A71EE821A61EEC7
:10145000811AB0EE401A01EEE01A01EEA00AF0EE99
:10146000431AF0EE610A83ED021A82ED021AB0EE21
:10147000412A84ED020A85ED020AB0EE441AB0EE6C
:10148000420A06F0F3FB83ED020A92ED020AB0EE87
:10149000441AF0EE610A00E017E006F0E7FB82ED87
:1014A000020A94ED020AB0EE441AF0EE610A06F068
:1014B000DDFB84ED020A95ED020AB0EE441AF0EE6F
:1014C000610A06F0D3FB85ED020ABDE8F081000059
:1014D00091010020E4010020E0010020EC5B0020ED
:1014E000005C0020145C0020285C0020E05B0020F1
:1014F000000000002DE9F04105F014F83F4890EDA0
:10150000000A02F083F93E493E4FB1F90010084449
:1015100038603D4890ED000A02F078F93B493C4EB6
:10152000B1F90010084430603A4890ED000A02F02A
:101530006DF93949394CB1F9001008442060384838
:1015400090ED000A02F062F93649374DB1F900100A
:101550000844286005F028F897ED000A334AF8EEB1
:10156000C00A92ED000A01F013FFDFF8C480314B8E
:1015700088ED000A96ED000AF8EEC00A93ED000A25
:1015800001F03CFF2C4E86ED000A94ED000A2B4C36
:10159000F8EEC00A94ED000A01F066FF284F87EDCF
:1015A000000A95ED000A274DF8EEC00A95ED000AF5
:1015B00001F090FF244880ED000AD2ED000A98ED7A
:1015C000001A70EE810AC2ED000AD3ED000A96ED12
:1015D000001A70EE810AC3ED000AD4ED000A97EDFF
:1015E000001A70EE810AC4ED000AD5ED000A30EE53
:1015F000800A85ED000ABDE8F0810000A801002006
:10160000F4000020F0010020AC010020F6000020D2
:10161000F4010020B0010020F8000020F8010020B3
:10162000B4010020FA000020FC010020C8000020C6
:10163000D8000020CC000020DC000020D0000020DA
:10164000E0000020D4000020E40000201CB50121AF
:10165000082001F075FF0820009000208DF804009C
:1016600003208DF8050001208DF807006946024827
:1016700000F074FA1CBD0000000C0240F0B501211E
:1016800089B0084601F068FF0121032001F058FFEE
:1016900003258DF8055002264FF400408DF80460B4
:1016A00001242B4F00908DF806408DF807406946C5
:1016B000384600F053FA8DF805508DF804608DF827
:1016C00006408DF807400820224C009069462046CD
:1016D00000F044FA01220F21384600F07BFA012283
:1016E0000321204600F076FA02A803F061F90024F5
:1016F0004FF6FF70ADF8084003907507ADF8104045
:10170000ADF80A4002A9284603F014F900231A464E
:101710000321284602F02FFF05A802F0AFFFADF825
:101720001C4005A9284602F053FF0121284602F07B
:1017300007FF01221146284602F0A8FF0021284693
:1017400003F0CEF80121284602F000FF09B0F0BDF9
:10175000000002400004024030B589B0012102209F
:1017600001F0FAFE0121022001F0EAFE3020039090
:1017700003208DF8110002208DF8100001208DF853
:101780001200224C8DF8130003A9204600F0E6F960
:1017900002220421204600F01DFA022205212046E3
:1017A00000F018FA684603F003F900244FF6FF70C2
:1017B000174DADF800400190ADF80840ADF802407B
:1017C0006946284603F0B6F800231A460321284646
:1017D00002F0D1FE05A802F051FFADF81C4005A9AA
:1017E000284602F0F5FE0121284602F0A9FE01225A
:1017F0001146284602F04AFF0021284603F070F8FF
:101800000121284602F0A2FE09B030BD00040240CA
:101810000004004030B589B00121042001F09CFE95
:101820000121022001F08CFEC020039003208DF8DE
:10183000110002208DF8100001208DF81200224CBA
:101840008DF8130003A9204600F088F90222062132
:10185000204600F0BFF902220721204600F0BAF925
:10186000684603F0A5F800244FF6FF70174DADF859
:1018700000400190ADF80840ADF8024069462846A6
:1018800003F058F800231A460321284602F073FE9D
:1018900005A802F0F3FEADF81C4005A9284602F0A9
:1018A00097FE0121284602F04BFE012211462846F0
:1018B00002F0ECFE0021284603F012F80121284630
:1018C00002F044FE09B030BD0004024000080040B0
:1018D00030B589B00121082001F03EFE0121084603
:1018E00001F02EFE274C02220021204600F072F962
:1018F00002220121204600F06DF902218DF811101D
:101900008DF81010012103208DF8121003908DF82E
:10191000131003A9204600F021F9684603F048F8A7
:1019200000244FF6FF70184DADF800400190ADF85F
:101930000840ADF802406946284602F0FBFF00234C
:101940001A460321284602F016FE05A802F096FE6C
:10195000ADF81C4005A9284602F03AFE01212846B0
:1019600002F0EEFD01221146284602F08FFE002112
:10197000284602F0B5FF0121284602F0E7FD09B034
:1019800030BD000000000240000C00400549002866
:10199000086802D040F4806001E020F480600860B4
:1019A00070470000003C024070B50646002529B192
:1019B000012927D0022928D04FF4407500F080F883
:1019C00009281ED1124C206820F440702060206845
:1019D00028432060206820F0F8002060206846F04E
:1019E000020108432060206840F48030206000F04D
:1019F00067F8216821F002012160216821F0F801D7
:101A0000216070BD4FF48075D8E74FF40075D5E7BD
:101A1000103C02400D4909200A68D20301D501207B
:101A200070470A68D20601D5062070470A68D205B9
:101A300001D5022070470A6812F0EF0F01D007208D
:101A4000704709688907FBD5082070470C3C0240A5
:101A50000248016841F0004101607047103C0240BB
:101A600070B50D46064600F02BF8092813D10A4C34
:101A7000206820F440702060206840F4807020606E
:101A8000206840F001002060358000F019F82168DE
:101A900021F00101216070BD103C02400548006842
:101AA000002805DA034804490C3801600349016045
:101AB00070470000103C024023016745AB89EFCD21
:101AC00008B509208DF80000FFF7A4FF8DF800008D
:101AD0009DF800000128F7D09DF8000008BD000027
:101AE00000B50A221049114801F0F6FE0E484FF6E3
:101AF000FF720F49038893420DD1438893420AD164
:101B00008388934207D1C388934204D10020088080
:101B10004880888006E002880A8042884A8082885D
:101B20008A80C088C88000BD8008002000000408AA
:101B3000F40000200648074902880A8042884A804B
:101B400082888A80C088C8800A22034801F0D0BEFB
:101B5000F40000208008002000000408F0B50022F6
:101B600001274FF0030C0B6807FA02F52B40AB423C
:101B70002CD1066853000CFA03F4A64306600E79D4
:101B8000D0F800E09E4046EA0E0606600E79012E6F
:101B900001D0022E12D18668A64386604E79D0F815
:101BA00008E09E4046EA0E0686604668AE43466000
:101BB00045688E799640B6B235434560C568A54301
:101BC000C560CC799C40C3681C43C460521C102A79
:101BD000C9D3F0BD4B07DB0E9A40C90810B500EB26
:101BE0008100016A0F249C40A1430162016A1143F4
:101BF000016210BD0183704710B50A4C01460723EE
:101C000001222046FEF758FE2046FEF78FFE0221F5
:101C10002046FEF724FE0028F9D02046BDE81040FB
:101C2000FEF71ABE0020014010B50A4C01460723FA
:101C300001222046FEF740FE2046FEF777FE0221F5
:101C40002046FEF70CFE0028F9D02046BDE81040E3
:101C5000FEF702BE00210140F0B59FED900A9048CA
:101C6000914A934904788F48012C03788F4802D019
:101C7000022C6ED0FDE08F4C8F4D2678DFED8F2A41
:101C80008F4C2D7824789FED8F1ADFED8F1A8F4FB0
:101C90009FED8F2A97ED000AF1EE400A46B1092B1D
:101CA00067D2DFE803F0664346494E51575A630056
:101CB000092B24D2DFE803F02305080B1013181BAF
:101CC000200080ED000A0CE080ED000A01E080EDCC
:101CD000001AC2ED000ACCE0C0ED000AF9E7C0ED41
:101CE000000A82ED001AC4E0C0ED000A01E080EDB8
:101CF000001A82ED000ABCE080ED000AF9E780EDF1
:101D0000001A82ED001A012D04D0012C07D081EDBC
:101D1000001AAEE0C0EE220A20EE820A03E0C0EE16
:101D2000220A20EEA10A81ED000AA2E080ED000A5D
:101D30000CE080ED000A01E080ED001AC1ED001A10
:101D40000FE0C0ED000AF9E7C0ED000A81ED001ACE
:101D500007E02EE0C0ED000A01E080ED001A81ED01
:101D6000002A012D08D0012C09D00AE080ED000ADC
:101D7000F5E780ED001AE9E781ED002A01E0C1ED09
:101D8000001A022E01D0012E73D1D0ED000AF5EE1B
:101D9000C00AF1EE10FAD1ED000A03D2F1EE600AAA
:101DA000C1ED000A20EE800AC0EE220AC1ED000A51
:101DB0005FE0484C484D494E494F94ED002AD5ED1F
:101DC000001A96ED001AD7ED000A092B25D2DFE89C
:101DD00003F02405080B0E11161B200030EE800ABC
:101DE0000AE032EE000A0CE031EE800A0EE031EE3D
:101DF000000A10E030EEC00A87ED000A0DE032EE76
:101E0000400A84ED000A08E031EEC00A85ED000AC0
:101E100003E031EE400A86ED000ADFED321A9FED55
:101E2000322A97ED000AB0EE611AF0EE420A05F090
:101E30001DFF87ED000AB0EE611AF0EE420A94ED44
:101E4000000A05F013FF84ED000AB0EE611AF0EE0F
:101E5000420A95ED000A05F009FF85ED000AB0EE93
:101E6000611AF0EE420A96ED000A05F0FFFE86EDDB
:101E7000000AD0ED000A9FED1D1A80EE810A80ED68
:101E8000000AD2ED001AC1EE810AC2ED000A91EDFE
:101E9000001ABDE8F040FFF75FBA0000A69B443B84
:101EA00098010020B8010020D0010020CC010020C2
:101EB000D401002091010020000200200000FA431C
:101EC0000102002000000000DB0FC9BF94010020C8
:101ED000DB0FC93FAC010020B0010020B40100209D
:101EE000A8010020C3F5C83FC3F5C8BF00007A446D
:101EF00010B502202DED048B01F0A8FB334C2060BF
:101F0000032001F0A3FB6060042001F09FFBA060B0
:101F1000052001F09BFB2E49E060097821B10129E1
:101F200002D0022922D10FE094ED000AA168F8EE58
:101F3000C09A94ED010A49424042B8EEC09A00EEC0
:101F4000101AF8EEC08A0DE094ED000A6168F8EE10
:101F5000C09A494200EE101AB8EEC09A94ED020AF7
:101F6000F8EEC08A00EE100AB8EEC08A9FED191A8A
:101F7000194829EE810AD0ED000A184860EE201AAF
:101F800090ED000A164881EE802A69EE011A61EE92
:101F9000A01A80ED002A81EE802A68EE811A11488D
:101FA00028EE011A61EEA01A61EE200A80EE801A76
:101FB00080ED002A0C4881EE802A80ED002A0B4833
:101FC00080ED001ABDEC048B10BD00003C5C0020CD
:101FD000910100200000C842DC010020D80100204F
:101FE000EC5B0020005C0020145C0020285C0020DA
:101FF0002DE9F04100250E4607462C4608E03846FC
:10200000FFF7FAFD0544052004F0FCF9641CE4B276
:10201000B442F4D3B5FBF6F080B2BDE8F081000025
:1020200010B50820FFF700FE07F0EDFB9FED0E1B3B
:1020300053EC112B07F036FC9FED0D1B53EC112BCD
:1020400007F030FC9FED0C1B53EC112B07F02AFC22
:102050009FED0B1B53EC112B07F024FC07F076F9D6
:1020600000EE100A10BD00006666666666660A40ED
:1020700000000000000026400000008014AEEF3F8A
:10208000000000000000303FFEE7000070B50D4C7E
:102090000025C4F8A8520C48016821F440010160F1
:1020A000016841F480010160C4F8AC52012004F5DC
:1020B0002A7404F0C3F90120206004F0BFF9256000
:1020C00070BD000000804042000402401CB50121A8
:1020D000022001F035FA4FF44060012400908DF8A1
:1020E000044000208DF8060003208DF805008DF8CF
:1020F000074069460448FFF731FD0448C0F8A8428C
:10210000C0F8AC421CBD0000000402400080404208
:1021100070B50D4C0026C4F8A8620C48016821F483
:1021200040010160016841F4800101600125C4F8AB
:10213000AC52284604F52A7404F080F92560012089
:1021400004F07CF9266070BD00804042000402402B
:102150002DE9F047814618480025016821F4400127
:10216000016001680160154E2C462F464FF00108B2
:10217000C6F8A872012004F061F9C6F8A8826806C2
:10218000D6F82C12000E11B140F0010501E020F04C
:102190000105012004F052F9641CE4B2082CE7D3D5
:1021A000B9F1000F04D0FFF7B3FF2846BDE8F08770
:1021B000FFF76CFFF9E70000000402400080404296
:1021C00070B50D46044600F01BF8204600F0B0F84C
:1021D00000F05EF8284600F0ABF800F059F800F087
:1021E0000FF844F0010000F0A3F800F051F80120CE
:1021F000FFF7AEFF044600F02BF8204670BD00004C
:1022000070B51148016821F440010160016841F492
:10221000800101600D4C0120C4F8AC02D4F82C12EE
:1022200000290FD0C4F8A80204F008F90025C4F86A
:10223000AC52D4F82C02002804D1012004F0FEF89E
:10224000C4F8A85270BD0000000402400080404263
:102250000D4810B5016821F440010160016841F4A6
:1022600080010160094C0020C4F8A802C4F8AC0247
:10227000012004F52A7404F0E1F801202060606078
:10228000BDE8104004F0DAB800040240008040428B
:1022900070B512480024016821F440010160016812
:1022A00001600F4D0126C5F8AC62304604F0C6F857
:1022B000C5F8A86207E0641CE4B2322C03D9FFF72A
:1022C000C7FF002070BD012004F0B8F8D5F82C023B
:1022D0000028F0D1C5F8A802012070BD000402401A
:1022E000008040422DE9F0411D4614460F468046CD
:1022F000069EFFF765FF621CFF21C4F1080301FA87
:1023000002F22B445B1ED9400A43C5F108018E40FE
:10231000D2B2F1B2C4F10703D940104040EA010241
:102320003946404600F034F80120BDE8F081000055
:102330002DE9F04105461448016821F4400101608F
:10234000016841F480010160104E0027C6F8A872B0
:102350003C464FF00108E809C6F8AC026806050ED5
:10236000012004F06BF8C6F8A882012004F066F89A
:10237000C6F8A872012004F061F8641CE4B2082CCD
:10238000E9D3BDE8F0810000000402400080404233
:1023900070B515460E460446FFF732FF2046FFF79C
:1023A000C7FFFFF775FF3046FFF7C2FFFFF770FF6B
:1023B0002846FFF7BDFFFFF76BFFFFF749FF01203E
:1023C00070BD0000174830EEC00A1749D0ED050A6D
:1023D000174A91ED001A70EE600A144960EE810A06
:1023E00091ED001A41EE000A90ED041A70EE810A98
:1023F00010EE901AC0ED040A914203DDDFED0D0AE4
:10240000C0ED040A10EE901A0B4A914203D9DFED99
:102410000B0AC0ED040A80ED050ABDEEE00A10EEDD
:10242000100A7047180200209C010020A001002023
:102430000078824600788246007882C6007882C69C
:10244000174830EEC00A1749D0ED080A174A91ED37
:10245000001A70EE600A144960EE810A91ED001ACC
:1024600041EE000A90ED071A70EE810A10EE901A04
:10247000C0ED070A914203DDDFED0D0AC0ED070A4A
:1024800010EE901A0B4A914203D9DFED0B0AC0ED12
:10249000070A80ED080ABDEEE00A10EE100A704748
:1024A000180200209C010020A00100200078824634
:1024B00000788246007882C6007882C6174830EEDF
:1024C000C00A1749D0ED0B0A174A91ED001A70EEB9
:1024D000600A144960EE810A91ED001A41EE000A8B
:1024E00090ED0A1A70EE810A10EE901AC0ED0A0AF9
:1024F000914203DDDFED0D0AC0ED0A0A10EE901ADD
:102500000B4A914203D9DFED0B0AC0ED0A0A80EDB8
:102510000B0ABDEEE00A10EE100A70471802002008
:102520009C010020A00100200078824600788246AD
:10253000007882C6007882C6174830EEC00A174974
:10254000D0ED0E0A174A91ED001A70EE600A144998
:1025500060EE810A91ED001A41EE000A90ED0D1A2D
:1025600070EE810A10EE901AC0ED0D0A914203DD63
:10257000DFED0D0AC0ED0D0A10EE901A0B4A9142E4
:1025800003D9DFED0B0AC0ED0D0A80ED0E0ABDEE9A
:10259000E00A10EE100A7047180200209C0100208B
:1025A000A00100200078824600788246007882C62A
:1025B000007882C61CB50121102000F0C1FF002167
:1025C0008DF80410032101208DF8051000908DF87E
:1025D000070069460148FFF7C1FA1CBD0010024020
:1025E00010B5322003F0AEFD02280BD10749064892
:1025F0000A68026089888180064905480A68026085
:102600008988818010BD0000E4020020EA020020D9
:10261000F0020020F60200201CB50121102000F07D
:102620008FFF0820009001208DF8040000218DF814
:10263000061003218DF80510054C8DF8070069463A
:102640002046FFF78BFA08212046FFF7D3FA1CBD7E
:102650000010024000EE900A41421E4AB8EEE01A15
:1026600000EE901A00B592ED010AF8EEE00A05F0CE
:10267000FDFA00EE900A82ED010A174AB8EEE01A60
:1026800000EE901A92ED010AF8EEE00A05F0EEFA7B
:1026900000EE900A82ED010A104AB8EEE01A00EE50
:1026A000901A92ED010AF8EEE00A05F0DFFA00EE6A
:1026B000900A82ED010A0A4AB8EEE01A00EE901A7A
:1026C00092ED010AF8EEE00A05F0D0FA82ED010A77
:1026D00000BD0000EC5B0020005C0020145C0020CA
:1026E000285C0020BC2801D3012210E0622801D31D
:1026F00002220CE02A2801D3032208E0142801D387
:10270000042204E00A2801D3052200E006221A214F
:10271000D020FFF73DBE10B504464FF47A708442D6
:1027200001D9044602E0042C00D20424B0FBF4F0EA
:10273000401EC2B21921D020FFF72AFE6008BDE872
:102740001040FFF7CFBF10B580226B21D020FFF7DC
:102750001FFEC82003F056FE00226B21D020FFF799
:1027600017FE012000F03AF8002000F02EF8322089
:10277000FFF7D1FF00223821D020FFF709FE002209
:102780006A21D020FFF704FE00222321D020FFF78A
:10279000FFFD80223721D020FFF7FAFD7521D020E0
:1027A000FFF70EFD682801D0012010BD01226B212A
:1027B000D020FFF7EDFD00226C21D020FFF7E8FDCF
:1027C0003220FFF7A8FF002010BD08B502230090BB
:1027D00004221C21D020FFF785FD08BD08B5022387
:1027E000009004221B21D020FFF77CFD08BD0000D3
:1027F00008B503F05DFE0D4C4FF47A7500900A2188
:10280000684605F095FD2068A8420ADA401C206061
:10281000606820612089A082D4F80A00E061E08924
:10282000208400F049F800F003F8E8E7D402002023
:1028300070B53C21D020FFF7C3FC04463B21D020DB
:10284000FFF7BEFC04EB00201A4C3E212080D02074
:10285000FFF7B6FC05463D21D020FFF7B1FC05EBA4
:10286000002060804021D020FFF7AAFC05463F21D0
:10287000D020FFF7A5FC05EB002000B2A4F10A016F
:10288000A0800968B1F57A7F12DB04F11803218872
:10289000198062885A8098809B1F1D88491B21805F
:1028A0005988511A61809988401A00F58040A080AB
:1028B00070BD0000DE02002070B54421D020FFF77B
:1028C0007FFC04464321D020FFF77AFC04EB002074
:1028D000214C46212080D020FFF772FC054645217F
:1028E000D020FFF76DFC05EB002060804821D02050
:1028F000FFF766FC05464721D020FFF761FC05EB9A
:10290000002000B2221FA08011684FF47A76134B8A
:10291000134DB14203DA01201860287070BDB14236
:1029200007D1002129704FF49671196040F2E93106
:102930001160094B21881233198062885A8098806F
:102940009B1F1D88491B21805988511A61809988D5
:10295000401AA08070BD0000D80200203400002082
:1029600090010020FEE7704730B50F23C278017850
:102970000125FAB1144A126801F1E02102F4E06283
:10298000C2F5E062C2F30722C2F10404D3404278E8
:10299000A24084781C401443220181F8002400786E
:1029A00000F01F018D404009800000F1E020C0F8D8
:1029B000005130BD01F01F0085404809800000F142
:1029C000E020C0F8805130BD0CED00E00249084322
:1029D00002490860704700000000FA050CED00E0B5
:1029E00010B40021084B0A46002003EBC004401C31
:1029F000C0B262548028F8D3491CC9B20829F3D365
:102A000010BC00F0B7B80000FC02002010B57F2811
:102A100016D83F2914D80723A3EBD10301F00701EF
:102A2000C1F107040121A140064CDBB204EBC00058
:102A3000002AC25CC9B201D00A4300E08A43C254F2
:102A400010BD0000FC0200207CB50121402000F0F8
:102A500077FD01268DF804600024F0208DF80640F3
:102A600000908DF805408DF8074069463F48FFF714
:102A700075F80121080700F06FFD012000F082FCCD
:102A8000002000F0D5FD002000F07CFC384DC5F89A
:102A90009442642005F5257503F0B4FC2E600021F6
:102AA000AE2000F029F90021D52000F025F9002101
:102AB000502000F021F90021A82000F01DF900218C
:102AC0003F2000F019F90021D32000F015F9002172
:102AD000084600F011F90021402000F00DF9002116
:102AE0008D2000F009F90021142000F005F90021E3
:102AF000202000F001F90021022000F0FDF8002163
:102B0000A12000F0F9F80021C02000F0F5F8002124
:102B1000DA2000F0F1F80021122000F0EDF8002199
:102B2000812000F0E9F80021EF2000F0E5F8002115
:102B3000D92000F0E1F80021F12000F0DDF80021BB
:102B4000DB2000F0D9F80021302000F0D5F800217A
:102B5000A42000F0D1F80021A62000F0CDF800213B
:102B6000AF2000F0C9F8FFF73BFF7CBD000C02402E
:102B70000000434270B5104E002505F1B000C0B210
:102B8000002100F0B9F80021084600F0B5F8002156
:102B9000102000F0B1F8002406EBC4000121405DD4
:102BA00000F0AAF8641CE4B2802CF5D36D1CEDB2E1
:102BB000082DE2D370BD0000FC0200202DE9F04F8B
:102BC000203A98460D468346894602F0FF0A0026C1
:102BD0002EE0B8F10C0F08D0174901EB0A100027BE
:102BE000845D200607D5099A08E014490AEB4A00DB
:102BF00001EB8000F3E7099890B10022294658467E
:102C0000FFF704FF6D1C6006EDB2040EA5EB090191
:102C1000414507D10BF101004D4600F0FF0B05E0E7
:102C20000122EBE77F1CFFB2082FDAD3761CF6B245
:102C30004645CED3BDE8F08FEAA4000876A0000890
:102C40002DE9FF4F81B00027DDF838B01D469246D0
:102C500080463C464FF001094FEA5B0627E0281BFF
:102C6000401EC1B20A2003F0CBFCBAFBF0F00A21EF
:102C7000B0FBF1F201FB120027B9691E8C4201DAA8
:102C800048B101273030C2B206FB0480C0B25B46B7
:102C9000CDF8009006E006FB0480C0B25B4620221F
:102CA000CDF800900299FFF789FF641CE4B2AC42B2
:102CB000D5D305B0BDE8F08FF8B516460D460446ED
:102CC000012714E07A2C02D900241035EDB23A2DF8
:102CD00003D900242546FFF783FE009732780C23A2
:102CE00029462046FFF76AFF0834E4B2761C3078A4
:102CF0000028E7D1F8BD000030B500230E4A0124BA
:102D000011B1C2F8904201E0C2F890320021C2F83D
:102D10009C32050602D5C2F8984201E0C2F898320A
:102D2000C2F89C424006491C000EC9B20829EED3E5
:102D3000C2F8904230BD0000000043420020044A27
:102D400001461154401CC0B20928FAD37047000054
:102D5000FC0600202DE9F84301250746ADF8005098
:102D60001B4800264670ADF800501A4C80464FF6BE
:102D7000FF7924E0BDF80000384202D0C4F8B05218
:102D800001E0C4F8B062C4F8A052052003F056FB7D
:102D9000C4F8A062052003F051FBC4F8A052D4F897
:102DA0003C0230B198F80110BDF80020114388F8BA
:102DB0000110BDF8001009EA4100ADF80000BDF8AF
:102DC0000000FF28D6D9BDE8F843102003F036BB39
:102DD000FC0600200000424270B5FFF7AFFF00F094
:102DE000F3F80B480B4AB0F803400A481832448005
:102DF0000020012512F8103000F101005B1E05FAD9
:102E000003F12142C0B202D01028F3D3002070BDDC
:102E1000FC0600203C00002010B5154C0020C4F832
:102E2000A802102004F52A7403F008FB0120FFF724
:102E300091FF4320FFF78EFF0020FFF78BFF01205B
:102E4000FFF788FF0020FFF785FF0020FFF782FFD4
:102E50000020FFF77FFF0020FFF77CFF0020FFF737
:102E600079FF01202060BDE81040102003F0E6BA91
:102E70000000424210B5154C0020C4F8A8021020F2
:102E800004F52A7403F0DAFA0120FFF763FF432008
:102E9000FFF760FF0020FFF75DFF0020FFF75AFFFC
:102EA0005A20FFF757FF5A20FFF754FF5A20FFF729
:102EB00051FF5A20FFF74EFF5A20FFF74BFF01202A
:102EC0002060BDE81040102003F0B8BA0000424274
:102ED0007CB50121102000F033FB4FF400400024AA
:102EE00000908DF8044003208DF805000C4E02255B
:102EF0008DF8075069463046FEF730FE01218DF807
:102F000004108DF806404FF4A8508DF8055000903D
:102F10008DF8071069463046FEF720FE7CBD0000A4
:102F20000010024010B5FFF757FF1949194A1A4B14
:102F30000860D1791960194B117A194C19605379CD
:102F40002360184B9279184C1A600123174A042801
:102F500001D11078C8B1A068002815D0762913DAFD
:102F60001078002810D112480068B0F57A7F0BDB8A
:102F700010491370002008700F4908700F4908703D
:102F80000F4908700F49087010BDA360E6E7000004
:102F900014020020FC060020040200200802002089
:102FA0000C020020100200203C000020A4010020A0
:102FB000D4020020A6010020A5010020A7010020C6
:102FC000EC010020ED0100202DE9FC4100268DF8E8
:102FD00000600125ADF80450224CC4F8A862224FCD
:102FE0003878FFF7B7FE7878FFF7B4FE02208DF847
:102FF00000001E4F4FF6FF782CE0ADF804501DE0A6
:10300000C4F8A052052003F019FAC4F8A062052004
:1030100003F014FAC4F8A052D4F83C0240B19DF871
:103020000000BDF80410385C08439DF80010785487
:10303000BDF8041008EA4100ADF80400BDF8040032
:10304000FF28DDD9102003F0F9F99DF80000401C9D
:103050008DF800009DF800000928CED3C4F8A852CE
:10306000BDE8FC81000042423C000020FC0600203C
:1030700010B500F00DF800F00BF800F009F8FFF7BC
:10308000CBFE00F027F8BDE81040FFF7F3BE0000CC
:1030900010B50F4C0020C4F8A802102004F52A74C3
:1030A00003F0CCF90120FFF755FE4220FFF752FE56
:1030B0000020FFF74FFE0020FFF74CFE0020FFF737
:1030C00049FE01202060BDE81040102003F0B6B991
:1030D0000000424210B5144C0020C4F8A8020120A0
:1030E00004F52A74FFF736FE4420FFF733FE002074
:1030F000FFF730FE0120FFF72DFE0320FFF72AFE29
:103100000020FFF727FE0020FFF724FE0020FFF736
:1031100021FE0020FFF71EFE01202060BDE81040C8
:10312000102003F08BB9000000004242F0B59FED83
:103130007F0A7F486FF0130504687E48C4F1800160
:103140000068C0F180027C48AA420368C3F1800095
:1031500002DD142A00DA0022A94202DD142900DA75
:103160000021A84202DD142800DA002000EE902A97
:10317000724EB8EEE01AD6ED000A21EE201ADFED0D
:10318000701A02EE101A02EE900A21EE211AB8EE21
:10319000C22A6C4A6C4DF8EEE22A22EE202A82ED19
:1031A000001A22EE212A85ED002A9FED683A684830
:1031B000684962EE832A62EEA11AC0ED001A09780E
:1031C000DFED652A61B1022901D001290ED1B5EEEA
:1031D000C01AF1EE10FA03D2F1EE611AC0ED001A36
:1031E00061EEA01A81EEA23A80ED003ADFED5B1AA3
:1031F000C1EE212A82EE211AC2ED002A85ED001AC5
:103200009FED571A642C01DAC82B03DCC82C07DDAC
:10321000642B05DA82ED001A85ED001A80ED001AA4
:103220005049514F524BD1F800C05049514CBCF15C
:10323000000F45D18E46DFF840C1DEED002A9E46E4
:10324000DCF800C09EED002AA646ACF1050CDEEDD0
:10325000001ABE46B1EE043A9EED001ABCF10C0F06
:103260002ED2DFE80CF006091217292D262D0C0F9F
:103270001C2131EE400A0AE032EE800A0CE032EE08
:10328000000A0EE031EE800A10E031EE000A87ED10
:10329000000A15E032EEC00A81ED000A10E032EEBD
:1032A000400A83ED000A0BE031EEC00A84ED000A0B
:1032B00006E030EE830A01E030EEC30A86ED000A34
:1032C000DFED2E1A9FED2E2A97ED000AB0EE611A5F
:1032D000F0EE420A04F0CAFC87ED000AB0EE611A73
:1032E000F0EE420A91ED000A04F0C0FC81ED000A04
:1032F000B0EE611AF0EE420A93ED000A04F0B6FC5B
:1033000083ED000AB0EE611AF0EE420A94ED000A75
:1033100004F0ACFC84ED000A90ED001AD5ED000A33
:1033200092ED000ABDE8F040FEF716B80AD7A33BBD
:1033300004020020080200200C020020940100205A
:103340000000003CCC010020D0010020DB0FC93F71
:10335000D4010020910100200000FA4300007A44CB
:1033600000000000FC000020A8010020AC010020AB
:10337000B0010020B401002014020020C3F5C83FB2
:10338000C3F5C8BF014908627047000000000E4243
:10339000154870EEC00A154990ED110A30EE200A6A
:1033A00080ED110A91ED001A124921EE202A9FEDBD
:1033B000101AC2EE011A91ED002A0F4922EE000AFE
:1033C00080EE012A31EE820AD0ED121A91ED002A28
:1033D000C0ED120A70EEE11A61EE821A81EE812AC6
:1033E00030EE020A7047000018020020E8000020BA
:1033F0000000C842EC000020F0000020154870EEEC
:10340000C00A154990ED150A30EE200A80ED150A24
:1034100091ED001A124921EE202A9FED101AC2EEFA
:10342000011A91ED002A0F4922EE000A80EE012ACE
:1034300031EE820AD0ED161A91ED002AC0ED160A7F
:1034400070EEE11A61EE821A81EE812A30EE020AF4
:103450007047000018020020E80000200000C84269
:10346000EC000020F0000020154870EEC00A15495D
:1034700090ED190A30EE200A80ED190A91ED001A3C
:10348000124921EE202A9FED101AC2EE011A91ED89
:10349000002A0F4922EE000A80EE012A31EE820A4C
:1034A000D0ED1A1A91ED002AC0ED1A0A70EEE11A59
:1034B00061EE821A81EE812A30EE020A7047000026
:1034C00018020020E80000200000C842EC000020A4
:1034D000F0000020154870EEC00A154990ED1D0A55
:1034E00030EE200A80ED1D0A91ED001A124921EEFE
:1034F000202A9FED101AC2EE011A91ED002A0F4901
:1035000022EE000A80EE012A31EE820AD0ED1E1A68
:1035100091ED002AC0ED1E0A70EEE11A61EE821AEA
:1035200081EE812A30EE020A704700001802002066
:10353000E80000200000C842EC000020F00000205D
:10354000044A0029116801D0014300E08143116061
:103550007047000030380240044A0029116801D049
:10356000014300E081431160704700004038024091
:10357000044A0029116801D0014300E08143116031
:103580007047000044380240044A0029116801D005
:10359000014300E08143116070470000243802407D
:1035A00070B5204B1968204C11F00C0104D0661046
:1035B000042903D0082903D004601BE0066019E049
:1035C000184A121F1168C1F38055116801F03F01BC
:1035D00015B1B6FBF1F101E0B4FBF1F1146812682A
:1035E000C4F388146143C2F30142521C5200B1FB80
:1035F000F2F1016019680F2202EA11110B4A545CC2
:103600000168E14041601C68072505EA9424145DC7
:1036100021FA04F484601B6805EA5333D25CD1407C
:10362000C16070BD083802400024F4000C01002085
:10363000054900220A700A70012802D0042801D12D
:1036400005200870704700007038024000210228F1
:1036500007D003280BD004280BD005280BD000205E
:1036600070474FF08042506A516200B27047044A7E
:1036700002E0044A00E0044A1068116000B270479A
:103680002404004024080040240C004010B551ECF4
:10369000100B2DED068BB0EE439AF0EE629AB0EE71
:1036A00042AAF0EE618AB0EE418A05F04FFEBDEE0F
:1036B000CA0A154910EE102ABDEEE90A086081ED2C
:1036C000018A10EE103AC1ED058AC1E9022381EDAD
:1036D000049A9900514300EE101A0C49B8EEC00A42
:1036E00081ED000A9FED0A0A0A4929EE000A81EDE0
:1036F000000A09490860094880ED008A0848C0EDC1
:10370000008ABDEC068B10BD4C5C0020D801002067
:10371000DB0F4940DC010020E0010020E401002033
:10372000E801002010B5294C4FF42B700A212060CD
:103730000920FEF75DFC2168254C90FBF1F0C0B23A
:103740002070022801D902202070DFED221A10F02B
:10375000FF0004D001280DD0022817D124E09FEDEE
:103760001E3AF2EE0A2AB3EE0E2A9FED1C1A9FEDC6
:103770001C0B09E09FED1C3AF2EE0A2AB3EE0E2A6A
:103780009FED1A1A9FED1A0BFFF780FF20781A4A57
:103790001A49082398B1012814D0022803D1042023
:1037A00010600720086010BD9FED153AF2EE0A2A5E
:1037B000B3EE0E2AB0EE611A9FED120BE4E70E2075
:1037C0001360EFE70B201360ECE70000C801002056
:1037D00091010020000000009A99993D7B14AE3DB4
:1037E000022B8716D9CEB73FB81E853DE926313E5C
:1037F000000000C09DEFC73FC0010020C4010020B1
:10380000C520303D000000E07A14CE3F9FED081A3D
:10381000DFED060A20EE011A9FED060A01EE600AAE
:10382000BDEEC00A10EE100A70470000E10B233F06
:1038300000007A440080BB441C49884201D2002029
:1038400070471B49884201D20820704719498842B5
:1038500001D2102070471849884201D218207047C1
:103860001649884201D2202070471549884201D26A
:10387000282070471349884201D2302070471249EE
:10388000884201D2382070471049884201D2402036
:1038900070470F49884201D2482070470D4988423D
:1038A00001D25020704758207047000000400008A7
:1038B0000080000800C000080000010800000208A5
:1038C00000000408000006080000080800000A08BC
:1038D00000000C0800000E0810B5002304E030F8CA
:1038E000024B21F813405B1C9342F8D310BD00003B
:1038F0002DE9F047092690460F460446B0F1006FC7
:1039000033D3E00731D1FEF7C9F80020FEF73EF8C7
:103910001748254604EB480884421DD24FF6FF792C
:1039200045450ED22888484509D02846FFF784FF30
:103930000221FEF739F806460928F1D00EE0AD1C49
:10394000EEE7092E08D009E039882046FEF788F80E
:10395000092803D1A41CBF1C4445F5D30120FEF760
:1039600015F8BDE8F047FEF773B8BDE8F087000032
:103970000000FF1F1A48416979B91B499FED190AD8
:1039800081ED000A194981ED000A194981ED000A0B
:10399000184981ED000A012141611748174A006862
:1039A000B2F90010052816D0072817D0144A0628A7
:1039B000B2F9001012D008280DD0124A0D28B2F921
:1039C000001008D00F2809D00F4A0E28B2F90010B5
:1039D00004D0102801D1491C11807047491EFBE713
:1039E0003C00002000000000A8010020AC010020E5
:1039F000B0010020B401002014020020F4000020D7
:103A0000F6000020F8000020FA0000202DE9F04127
:103A10001F489FED210A214A01681E48204B214E74
:103A200000680025204C64290BDAC82809DDE76806
:103A30007F1CE76082ED000A83ED000A86ED000A34
:103A400000E0E560C8290BDD642809DA2069401C24
:103A5000206182ED000A83ED000A86ED000A00E095
:103A60002561E3684FF4FA7201201049934202DDA8
:103A700060600860E5602369934207DD0A68012AF7
:103A800004D160600D60FEF755F82561BDE8F08156
:103A9000040200200C02002000000000CC010020E5
:103AA000D0010020D40100203C000020FC000020B8
:103AB0000CB50022274900920192086840F480303A
:103AC00008604FF4A043086800F4003001900098AB
:103AD000401C0090019810B900989842F3D10868F2
:103AE000800334D5012001901A484030026842F02A
:103AF000805202601848026842F440420260154851
:103B0000083002680260026842F400420260026803
:103B100042F4A0520260031F104A1A600A6842F081
:103B200080720A600A689201FCD50D4940F2057264
:103B30000A60016821F003010160016841F002019F
:103B400001600168C1F381010229FAD10CBD019223
:103B50000CBD0000003802400070004008544007CF
:103B6000003C02402DE9F04308AC1D4D94E8800371
:103B70001C4EDDF81CC044F29F14002803DA2C60B0
:103B80002044306002E03460201A28601648002982
:103B900003DA44632144816302E08463611A416370
:103BA0001248002A03DA84631119416302E0446376
:103BB000A11A8163002B03DA04641919C16302E0BE
:103BC000C463E11A01640A48C0F800C0001D076020
:103BD000001DC0F80080011DC1F80090BDE8F08311
:103BE000344401403448014000400140000001409D
:103BF0003404014000B5B0EE412AF0EE602AB0EE88
:103C0000401A9FED490A4948D0ED001ADFED480AF5
:103C1000B5EEC01AF1EE10FA02DD71EE801A0EE078
:103C2000B5EEC01AF1EE10FA02D271EEC01A06E03B
:103C3000B5EEC01AF1EE10FA03D161EEA01AC0ED94
:103C4000001A3A49F5EEC02AD1ED011AF1EE10FA48
:103C500002DD71EE801A0EE0F5EEC02AF1EE10FAE8
:103C600002D271EEC01A06E0F5EEC02AF1EE10FAAB
:103C700003D161EEA01AC0ED011A2C49B5EEC02A9D
:103C8000D1ED021AF1EE10FA02DD31EE800A0EE0FB
:103C9000B5EEC02AF1EE10FA02D231EEC00A06E00B
:103CA000B5EEC02AF1EE10FA03D121EEA00A80EDA4
:103CB000020AB0EE410A02F0E7FBF0EE400AB0EE75
:103CC000410A02F0E1FBF1EE401AB0EE601A90ED0D
:103CD000000AF0EE610A03F0C9FF80ED000AB0EEC1
:103CE000620A02F0D1FBB0EE401AB0EE620A02F0B6
:103CF000CBFBF1EE400A90ED010A03F0B7FF80ED37
:103D0000010AB0EE420A02F0BFFBB0EE401AB0EE7C
:103D1000420A02F0B9FBF1EE400A90ED020A03F00C
:103D2000A5FF80ED020A00BD0AD7233CE05B00201E
:103D30006666663F4FF0E0210428086903D020F052
:103D400004000861704740F00400FAE710B505F080
:103D500095F8012803D0BDE8104004F083BD10BDE4
:103D6000124810B5016841F4700101601048016803
:103D700041F0010101600E4A002108321160026821
:103D80000C4B1A400260031D0B4A1A60026822F4B1
:103D90008022026006480C300160FFF789FE03496B
:103DA0004FF000608039086010BD000088ED00E031
:103DB00000380240FFFFF6FE1030002470B5048C7E
:103DC00024F001040484058B048C4FF6FF7606EA88
:103DD0000313134325F0F3052B4324F00A020A438F
:103DE00042F001010383018470BDF0B5048C24F01E
:103DF00010040484078B068C4FF6FF7404EA011547
:103E000027F4734704EA0331394304EA02220A43E0
:103E100026F0A001294341F0100102830184F0BD86
:103E20002DE9F041884607468AB001210220FFF7BC
:103E300087FB01214804FFF79BFB1F4E032208214B
:103E40003046FDF7C7FE02208DF804000024C001B3
:103E50008DF80640012500908DF8075003208DF85D
:103E6000050069463046FDF779FE144EADF808802E
:103E70000397ADF81040ADF80A4002A9304600F0B3
:103E800059FD6020ADF81400ADF81650ADF8204093
:103E900005A9304600F002FC0821304600F034FC51
:103EA0000121304600F042FB0121304600F04EFB7C
:103EB0000AB0BDE8F0810000000402400044014067
:103EC0002DE9F041884607468AB001210220FFF71C
:103ED00037FB01218804FFF74BFB214E0322092108
:103EE0003046FDF777FE02208DF804000024000222
:103EF0008DF80640012500908DF8075003208DF8BD
:103F0000050069463046FDF729FE164EADF80880DB
:103F10000397ADF81040ADF80A4002A9304600F012
:103F200009FD6020ADF81400ADF81650ADF8204042
:103F300005A9304600F0B2FB0821304600F0E4FB52
:103F40000121304600F00CFB0121304600F0EEFA72
:103F50000121304600F0FAFA0AB0BDE8F081000015
:103F600000040240004801402DE9F0418846074620
:103F700001218AB00846FFF7FBFA01211020FFF764
:103F8000DFFA354E012209213046FDF723FE0122DA
:103F90000B213046FDF71EFE01220D213046FDF7B4
:103FA00019FE01220E213046FDF714FE4FF4D440D5
:103FB000059002208DF8180003208DF819000024C8
:103FC0008DF81A4001258DF81B5005A93046FDF7E4
:103FD000C5FD224EADF81C800897ADF82450ADF811
:103FE0001E4007A9304600F0A5FC6020ADF8000097
:103FF000ADF80250ADF80C406946304600F04EFB7B
:104000006946304600F086FB6946304600F0D6FB34
:104010006946304600F020FC0121304600F0A0FA4D
:104020000821304600F070FB0821304600F0BCFB50
:104030000821304600F00AFC0821304600F046FC1A
:104040000121304600F072FA0121304600F07EFA7C
:104050000AB0BDE8F08100000010024000000140FD
:104060004FF08040018A018A21F0010101827047EE
:1040700003480188018821F0010101807047000098
:104080001004004003480188018821F001010180EB
:10409000704700001008004003480188018821F0A3
:1040A0000101018070470000100C004003480188A6
:1040B000018821F0010101807047000010180040C4
:1040C0002DE9F0478E4800248169B1F5C86F13DDF2
:1040D0008C490A7882B98C4A1268B2F57A7F0BDB78
:1040E00001220A7089490C7089490C7089490C7049
:1040F00089490C7089490C7080460078884D00060B
:1041000042F20F764FF4FA772DD40221284600F0C0
:1041100053FA40B30221284600F015FA98F800003F
:10412000400628463DD500F03FFA80B2A8F80600C8
:10413000B8F804104246884201D2566300E0546346
:10414000401A516B08445061516A401A00D54042F0
:10415000B84200DD51615069506288F8004000218A
:10416000284600F0CBFA98F8010000063AD4042162
:10417000284600F021FAA8B30421284600F0E3F90C
:1041800098F80100400628464AD500F00FFA80B2A0
:10419000A8F80A00B8F80810424688420ED2966382
:1041A0000DE000F001FA0146A8F8041098F800109C
:1041B00041F0400188F800100221D1E79463401AD1
:1041C000916B08449061916A401A00D54042B84210
:1041D00000DD91619069906288F8014000212846D5
:1041E00000F0D8FA98F8020000063AD408212846D0
:1041F00000F0E2F9A8B30821284600F0A4F998F8E5
:104200000200400628464BD500F0D2F980B2A8F84B
:104210000E00B8F80C10424688420ED2D6630DE06C
:1042200000F0C4F90146A8F8081098F8011041F010
:10423000400188F801100221D1E7D463401AD16B04
:104240000844D061D16A401A00D54042B84200DD2E
:10425000D161D069D06288F802400021284600F080
:10426000EBFA98F80300C146000647D4102128460F
:1042700000F0A2F9002841D01021A846284600F0FD
:1042800062F999F803004D4640062BD5404600F0F0
:1042900091F980B26882298A88420ED22E640DE09C
:1042A00000F086F90146A8F80C1098F8021041F0C9
:1042B000400188F802100221D0E72C64401A296CD2
:1042C00008442862296B401A00D54042B84200DDFC
:1042D0002962286A2863EC7000214046BDE8F04757
:1042E00000F0EABA4446404600F064F92882E878D3
:1042F000022140F04000E8702046EFE7BDE8F0877B
:1043000074000020A6010020D4020020A501002096
:10431000A4010020A7010020EC010020ED010020F5
:10432000000401402DE9F041884606468AB001218B
:104330000220FFF71DF901210420FFF701F90220F7
:104340008DF818004FF47070059003208DF8190057
:1043500000243E4F8DF81A4001258DF81B5005A909
:104360003846FDF7FBFB032206213846FDF732FCF9
:10437000032207213846FDF72DFC03220821384689
:10438000FDF728FC032209213846FDF723FC089697
:104390002F4EADF81C80ADF82440ADF81E4007A9A3
:1043A000304600F0C7FA6020ADF80000ADF80250CA
:1043B0000294ADF80C40ADF810406946304600F06C
:1043C0006DF96946304600F0A5F96946304600F0BF
:1043D000F5F96946304600F03FFA0821304600F012
:1043E00093F90821304600F0DFF90821304600F04B
:1043F0002DFA0821304600F069FA0121304600F01C
:10440000AFF80121304600F0A1F812481049B0F988
:104410000000343100F2DC5008600F48091DB0F98B
:10442000000000F2DC5008600C48091DB0F90000E3
:1044300000F2DC5008600A48091DB0F9000000F2E3
:10444000DC5008600AB0BDE8F081000000080240BE
:1044500000040140F4000020F6000020F8000020D5
:10446000FA0000200248018821F001010180704714
:10447000100401402DE9F0438946804601218BB0AC
:104480000804FFF775F801211020FFF759F8254FB0
:10449000032205213846FDF79DFB032206213846FD
:1044A000FDF798FB02208DF8180003208DF8190005
:1044B000002460268DF81A40012505968DF81B50C2
:1044C00005A93846FDF74AFB174FADF81C90CDF80B
:1044D0002080ADF82440ADF81E4007A9384600F012
:1044E00029FAADF80060ADF80250ADF80C4069460D
:1044F000384600F0D3F86946384600F00BF9082139
:10450000384600F001F90821384600F04DF9012144
:10451000384600F00BF80121384600F017F80BB0D0
:10452000BDE8F083001002400040014000290188EE
:1045300002D041F0800101E021F08001018070474C
:10454000C94301827047C94301827047002901882D
:1045500002D041F0010101E021F00101018070472A
:10456000002930F8441F02D041F4004101E0C1F3BA
:104570000E010180704770B50589048B068C25F00B
:1045800007050D434FF6FC410C4040F201110C436E
:104590004FF6FF7101EA031126F022061143314361
:1045A00005810483018470BD406B7047806B704748
:1045B000C06B7047006C704702460020138A9289D6
:1045C0000B4202EA010202D0002A00D0012070470B
:1045D0002DE9F0410C460E884988A28823890546BA
:1045E00016B3042E28D0082E2E8C4FF6FF702BD039
:1045F00026F480562E84AF8B2E8C00EA022200EA2D
:10460000013127F473473A4300EA0330104326F49C
:1046100020420A4342F48051A8832984E188284635
:10462000BDE8F04100F07AB9FFF7C8FBE188284601
:10463000BDE8F04100F056B9FFF7D7FBE188284606
:10464000BDE8F04100F056B926F480762E84AF8B99
:104650002E8C00EA012100EA0310104327F0F30733
:10466000384326F420620A4342F48071A8832984E7
:10467000E1882846BDE8F04100F048B900210180FA
:10468000418001228280C18001817047002A828995
:1046900001D00A4300E08A438281704730B5028C22
:1046A00022F001020284028C8388048B22F0020231
:1046B00024F073050C882C438D8915434A882A43BE
:1046C0000C4DA84202D00C4DA8420DD122F0080595
:1046D000CA8923F440732A4322F004058A882A43B6
:1046E0000D8A1D434B8A2B43838004838968416371
:1046F000028430BD0000014000040140028C22F021
:1047000002020A4302847047028B22F008020A4325
:104710000283704770B5028C22F010020284028C72
:104720008388048B0D8824F4E6464FF6FF7404EA70
:10473000052535438E8922F0200204EA0616164329
:104740004A8804EA02123243104EB04202D0104EA0
:10475000B04215D122F08006CA8923F4406304EAEE
:104760000212324322F040068A8804EA02123243DF
:104770000E8A04EA86061E434B8A04EA8303334307
:104780008380058389688163028470BD00000140D5
:1047900000040140028C4FF6FF7322F0200203EA6E
:1047A0000111114301847047028B4FF6FF7322F40D
:1047B000006203EA012111430183704770B5028C46
:1047C00022F480720284028C8388848B0D8824F00A
:1047D000730425438E894FF6FF7422F4007204EAB5
:1047E000062616434A8804EA02223243104EB0429B
:1047F00002D0104EB04215D122F40066CA8923F4CB
:10480000405304EA0222324322F480668A8804EA92
:10481000022232430E8A04EA06161E434B8A04EA39
:1048200003133343838085838968C163028470BD29
:104830000000014000040140028C4FF6FF7322F497
:10484000007203EA0121114301847047828B22F038
:1048500008020A438283704770B5028C22F48052AA
:104860000284058C8288838B0C8823F4E6464FF6FD
:10487000FF7303EA0424344325F400568D8903EAC8
:10488000053535434E8803EA06362E43084DA842C7
:1048900002D0084DA84205D122F480450A8A03EAD5
:1048A00082122A438280848389680164068470BDF1
:1048B0000000014000040140028C4FF6FF7322F417
:1048C000005203EA0131114301847047828B4FF695
:1048D000FF7322F4006203EA0121114381837047D0
:1048E00041627047028B22F00C020283028B0A4362
:1048F00002837047028B22F440620283028B4FF6E0
:10490000FF7303EA01210A4302837047828B22F07E
:104910000C028283828B0A4382837047828B22F44B
:1049200040628283828B4FF6FF7303EA01210A43C0
:104930008283704730B50288164C174DA0420DD0C7
:10494000A8420BD0B0F1804F08D0144B984205D04C
:10495000134B984202D0134B984203D122F07003BC
:104960004A881A43104B984206D0104B984203D005
:1049700022F440730A891A4302804A68C2620A8894
:104980000285A04201D0A84201D1897A0186012185
:10499000818230BD0000014000040140000400405D
:1049A00000080040000C00400010004000140040CF
:1049B0004FF0FF314160002101800181418081720F
:1049C000704700000A2809DB0C48D0F80C0228B117
:1049D0000B480078012801D000207047094A0120C7
:1049E00000211160084A1160084A51639163084A26
:1049F000916391631164D16370470000008041426C
:104A000090010020344401403448014000400140FE
:104A1000000001402DE9F0475A4D00244FF00108F5
:104A200040F22551284600F0B7FB00287ED02846EA
:104A300000F040FC5449C0B20968B1F57A7F75DBDB
:104A4000534F524D0026B979A5F143097B2868548C
:104A5000FA7909F8020000D011B1491CB97100E0DF
:104A6000BE71AA2800D012B1521CFA7100E0FE718A
:104A7000B8790B282ED1BE71A87A7D282AD10021C1
:104A80000920FCF74BFC697A884223D1414846490A
:104A9000067041480670414806704148067041481A
:104AA000067001200870414806702979E87800F006
:104AB0000BFC3F4880ED000AA979687900F004FCFE
:104AC0003C4880ED000A297AE87900F0FDFB3A487D
:104AD00080ED000AF8790B2850D1FE7199F80A0090
:104AE0004946BB284AD100200A5C401C5440092892
:104AF000FADB487AA04202D0B8F1000F3ED18878A4
:104B00004A78CB7800EB022000B200EE100A087958
:104B10002A4A00EB0320F8EEC01A00B200EE100A99
:104B2000274C8879B8EEC00A4B7900E026E000EB0C
:104B3000032000B29FED252A00EE900A087A61EE6C
:104B4000821A99F80710B8EEE01AC2ED001ADFEDEC
:104B5000201A00EB012000B220EE210A00EE900A9C
:104B6000184B84ED000AF8EEE00A21EE210A1648FF
:104B700083ED000A20EE820A80ED000A0020BDE8E5
:104B8000F0870000004800401C0200209807002029
:104B9000B8000020A4010020A6010020A5010020EB
:104BA000A7010020EC010020ED010020B40200204C
:104BB000CC010020D0010020D4010020A801002059
:104BC000AC010020B0010020B40100206F1283BAB4
:104BD0006F12833A2DE9F0416A4E40F2255130467A
:104BE00000F0DAFA002879D000240125304600F0E0
:104BF00061FB6549C0B20968B1F57A7F6EDB644B31
:104C0000624E00221F7806F10B017B28F05593F8C5
:104C100001C001F80C0000D017B17F1C1F7000E02C
:104C20001A70AA2802D0BCF1000F04D00CF1010CBC
:104C300083F801C000E05A7018780B2851D11A701F
:104C4000B07A7D284DD10020375C401C7C4009287B
:104C5000FADB707AA04201D1002500E0EDBB4D489F
:104C600007785FB9012707704B4802704B48027004
:104C70004B4802704B4802704B4802704B48027020
:104C80003079F77896F805C000EB072000B200EE07
:104C9000100AB079464F00EB0C20F8EEC01A00B2B3
:104CA00000EE100A307AF679B8EEC01A00EB062052
:104CB00000B200EE100ADFF8FCC03F48F8EEC00A70
:104CC0009FED3E0A81EE802AC1EE001A87ED002A90
:104CD00080EE801ACCED001A01E002E04FE080ED9A
:104CE000001A58780B284AD15A70887ABB2846D1C6
:104CF00000200A5C401C624014460928F9DB487A0F
:104D0000904200D0DDBB88784A78CB7800EB022057
:104D100000B200EE100A08799FED2D2A00EB032067
:104D2000F8EEC01A00B200EE100A88794B79B8EE9E
:104D3000C01A00EB032000B200EE100A087AC9790D
:104D40001F4A00EB012061EE821AF8EEC00A00B2A1
:104D500000EE100AC2ED001ADFED1E1AB8EEC00A0E
:104D6000184C21EE211A184B60EEA10A174820EECC
:104D7000020A84ED001AC3ED000A80ED000A00204B
:104D8000BDE8F081001001401C020020080700204F
:104D9000B8000020EC010020ED010020A50100205A
:104DA000A4010020A6010020A7010020B4020020D9
:104DB000CC010020D0010020D401002000007A4462
:104DC000A8010020AC010020B0010020B4010020A7
:104DD0006F1283BA6F12833A00B5054B0022985CBC
:104DE00003F0CCF8521CD2B2182AF8D300BD000050
:104DF000660700202DE9F04740F225512DED048B88
:104E00008F4800F0C9F9002878D08D48001D00882F
:104E10008C490968B1F57A7F70DB012100248A4D45
:104E2000412810D16A79412A0DD1884A137853B9A3
:104E3000874B1C70874B1C701170874A1470874A0F
:104E40001470874A1470C3B2DFF818C2DFF81882F2
:104E5000864F874A874E6B714FF002094B2808D066
:104E6000492808D04A2806D03F782FB1012F0ED00C
:104E700028E039700FE03C70A0F14107072F02D8FD
:104E80007F1C17701EE008281BDC13701AE04328F3
:104E90000CD047280FD08CF8004088F80040764F9F
:104EA000147041280CD0452813D00AE08CF800403B
:104EB00088F8001005E08CF8001088F8004000E049
:104EC000397014709FED6D0A582805D0592808D004
:104ED0000DE087F800900AE0D6ED000A30EE800A77
:104EE00003E0D6ED000A30EEC00A86ED000A644FFA
:104EF0003268BA4203DA9FED630A05E09BE0624F35
:104F0000BA4203DD9FED610A86ED000A604A9FED1B
:104F1000619A7B2807D07D280BD0A878012803D080
:104F2000022808D07EE0A970E8781354401CE8708D
:104F300078E085F80290D078502806D05078232861
:104F400067D0E878287190462AE05348017060E005
:104F5000E978081A04F040FC41EC110B9FED4F0B6F
:104F600000F0F6F92F79B0EE408A08EB0700F0EE7A
:104F7000608A10F8010C303804F02EFC53EC182B2A
:104F800004F090FC41EC180BE86804F081FF53EC4E
:104F9000182B04F00DFA04F0D9F97F1EE8602F7188
:104FA00028790428D4D298F80100DFED3E0A9FED5D
:104FB0003E0A303809282CD2DFE800F0050B111723
:104FC0002B2B1D22260095ED031A384811EE200ADE
:104FD0001DE095ED031A364811EE200A17E095ED15
:104FE000031A344811EE200A11E095ED031A3248F5
:104FF00011EE200A0BE095ED030A86ED000A08E0A9
:1050000095ED030A2D4802E095ED030A2C4880ED4A
:10501000000AAC70EC702C7185ED039A32211C48AB
:10502000FBF79BFA96ED000AB5EEC00AF1EE10FA16
:1050300001D286ED009A0020BDEC048BBDE8F0871C
:1050400000440040D4020020B8000020A501002048
:10505000A4010020A6010020A7010020EC010020EF
:10506000ED010020000200200102002002020020C9
:10507000B801002094010020980100200000C842DF
:105080000000484200004842000096440000964458
:1050900023070020000000000302002000000000A1
:1050A000000024400AD7233CC3F5C83FA8010020D4
:1050B000AC010020B0010020B40100209C010020C0
:1050C000A001002070B5154C40F225552946204618
:1050D00000F062F801281FD1204600F0EBF8114AD9
:1050E000C1B20F4B50891954401C50810D2901D178
:1050F000012010810C4E304600F0E0F8802130464F
:1051000000F043F80028F9D08021304600F02AF85A
:105110002946204600F029F870BD000000480040F4
:10512000B8070020B80000200010014000B5054B72
:105130000022985C02F02AFF521CD2B2182AF8D33F
:1051400000BD00006607002000B5054B0022985CFA
:1051500002F026FF521CD2B2182AF8D300BD00007C
:1051600066070020C943018070470A0A0121914067
:10517000C943018070470029818902D041F4005160
:1051800001E021F40051818170470246002012881D
:105190000A4200D00120704770B501F01F050126BA
:1051A0000024C1F3421306FA05F2012B0FD0022BA3
:1051B0000FD0838A4FEA11210088134206FA01F6C4
:1051C00000EA060001D000B10124204670BD8389A9
:1051D000F0E7038AEEE710B5C1F3421301F01F04B4
:1051E0000121A140012B07D0022B07D01430002A47
:1051F000026805D00A4304E00C30F8E71030F6E707
:105200008A43026010BD00007FB50446008A0D4647
:10521000C98820F4405001432182A08941F20C61E9
:105220008843A9882A8911436A8902431143A181CD
:10523000A08A20F44071A8890843A0826846FEF73E
:10524000AFF91A48844202D01948844201D1039828
:1052500000E00298A189090400EBC00101EB0010F5
:10526000296801D5490000E08900B0FBF1F0642213
:10527000B0FBF2F109010B096FF018056B4300EB6D
:105280008300A3891D044FF0320306D503EBC00051
:10529000B0FBF2F000F0070005E003EB0010B0FBFC
:1052A000F2F000F00F00084320817FBD00100140A4
:1052B000001401408088C0F308007047C1F3080162
:1052C00081807047FEE7000070B501EB002004B25A
:1052D0004FF47A7594FBF5F005FB10402DED028B31
:1052E00004F07AFA9FED0B1B53EC112B04F0DAFA61
:1052F00041EC180B94FBF5F004F06EFA53EC182B0C
:1053000004F056F804F022F8BDEC028B00EE100A0F
:1053100070BD0000FCA9F1D24D62503F03B401986A
:105320004100009850EAC12018BF04204A0D18BF60
:1053300040F0010040F2FF72B2EB515F08BF40F055
:105340000200012808BF052002B0704700000000DD
:105350002DE9F04D2DED040B2DED0E8B96B0DDE912
:105360002550279CDDF890A025F0004624F0004849
:10537000BAF1000F14BF0121002101EB4502FC49E5
:1053800053184A1093422AD3002814BF0123002344
:1053900003EB44030B44F7498B4220D358EA000146
:1053A0009FEDF59B76D0DFF8D8B35D4503D1BAF118
:1053B000000F05D188E0BAF1000F08BF002100D02E
:1053C000012101EB450111F5001F08D8002814BF89
:1053D0000121002101EB440111F5001F0BD99DEDC6
:1053E000261B9DED240B16B0BDEC0E8B04B0BDE862
:1053F000F04D00F069BE0027002DBCBFE149884593
:1054000021DAE1498845A8BF02271CDAC3451ADC26
:10541000DE4901EB2851142908DDC1F1340220FADC
:1054200002F101FA02F282420DD108E058B9C1F14D
:10543000140228FA02F101FA02F2424503D101F006
:105440000101C1F1020756EA0A0124D1002C22DA37
:10545000002D18BF022F01D0012F0AD00220FBF728
:10546000A7F816B0BDEC0E8B04B0BDE8F04D00F00F
:1054700013BE0220FBF79CF800F00EFE51EC100B5F
:1054800003F058FF41EC100B16B0BDEC0E8B04B0CE
:10549000BDE8F08D18E09FEDBEAB9FEDBF8B0028FF
:1054A00071D1B848804522D105F1804010F58010B7
:1054B00008BFBAF1000F07D0B3450ADC002CA8BF23
:1054C0009DED260BE0DA0DE0B0EE490AF0EE690A38
:1054D000DAE7002C06DA9DED260B51EC100B03F0F9
:1054E00029FF6FE0AE48784490ED000BCCE7D8453B
:1054F0004DD1002C48DA2EB186423AD1BAF1000FD4
:1055000042D126E0BAF1000F13D00220FBF750F889
:1055100000F0F6FD8DED020B9DED240B8DED000BE3
:1055200010EE900A039961F31E0003909DED020BAB
:10553000AAE78DED02AB9DED240B1AEE901A10EE4A
:10554000900A8DED000B61F31E0003909DED020BA0
:105550009AE78DED028B9DED240B18EE901A10EE5C
:10556000900A8DED000B61F31E0003909DED020B80
:105570008AE709DA9DED240B51EC190B53EC102B43
:1055800003F0D2FF1EE020E09DED240B7CE7864275
:105590001BDAB4F1804F0DD0A4F10050B0F1FF50F0
:1055A00013D1002D11DB9DED240B51EC100B02F0FB
:1055B00053FA07E09DED240B53EC102B51EC100B2C
:1055C00000F0C2BC41EC100B5EE79DED240B51ECEA
:1055D000100B00F04DFFBAF1000FCDE90E0142D1E2
:1055E0009FED710B46B3A6F1E040B0F17F600CD0A7
:1055F0005E4538D1002D00DAA7B3022F0CBF012081
:105600004FF0FF3004F0E8F8DCE7002D01DD002C5E
:105610000DDA002D01DD002C1FDB002D16DA002C29
:1056200014DB012F08BF9FED620B3FF42DAFB0EEEE
:105630004A0AF0EE6A0A27E7022F18BF002D0CD0A5
:10564000012F0AD1002DFFF61FAF06E0002DB8BFD5
:10565000002C08DA012F3FF417AFB0EE480AF0EE45
:10566000680A11E71BE0012000EBE57050EA070132
:1056700015D0791EB0EE498AF0EE698A084308BF5A
:105680009FED4D8B4E480025804570DD4D494E48BD
:10569000884514DDB0420DDB002C19DB2FE0012022
:1056A000FAF786FF16B0BDEC0E8B04B0BDE8F04DE6
:1056B00000F016BDB34502DC002C09DC1FE0864279
:1056C00002DA002C1BDA03E05E452BDD002C16DD30
:1056D0000220FAF76DFF00F013FD8DED020B53EC85
:1056E0001A2B51EC180B04F0DDF8CDE900010399F9
:1056F000019861F31E0003909DED020BC4E60220A9
:10570000FAF756FF00F00CFD10EE901A18EE900A12
:105710008DED020B8DED008B61F31E0003909DED6E
:10572000020BB1E69DED0E0B53EC192B51EC100B57
:1057300004F0C4FA9FED260BCDE9080153EC102BC1
:105740009DED080B51EC100B04F0ACF89FED221B03
:1057500053EC112B04F0DAF99DED081B53EC112BDF
:1057600004F0A0F89FED1E1B53EC112B3CE08CE0E5
:10577000FFFF1F00FFFF0F00000000000000F03FD0
:105780000000F03F0000F07F0000404301FCFFFFFD
:10579000000000000000F07F00000000000000009A
:1057A000BE6000000000000000000000000000805B
:1057B000000000000000F0FF000000000000F0BF4B
:1057C0000000E0410000F043FFFFEF3F0000000059
:1057D000000000000000D03F555555555555D53FA8
:1057E000000000000000E03F04F090F99DED080B80
:1057F00041EC1A0B53EC102B51EC100B04F052F847
:1058000053EC1A2B04F04EF841EC1A0B9FEDFE0BF3
:1058100053EC102B9DED080B51EC100B04F042F8EB
:1058200041EC1B0B9FEDFA0B51EC1A0B53EC102BB8
:1058300004F038F841EC1A0B9FEDF70B53EC102BEA
:105840009DED080B51EC100B04F02CF853EC1A2BC7
:1058500004F034FA41EC1A0B51EC1B0B53EC1A2BED
:1058600003F0A6FD0690CDE906519DED060B53EC25
:105870001B2B51EC100B04F021FA53EC1A2B04F003
:1058800045F941EC100B00F0A1B90020B6F5801FDE
:105890000EDA9FEDE30B53EC102B9DED0E0B51EC4C
:1058A000100B03F0FFFFCDE90E016FF034000E4640
:1058B00000EB2650A0F2FF37C6F31300DA4940F0A0
:1058C0007F6646F040568842D8BF002408DDD7499D
:1058D0008142C8BF012403DC0024A6F580167F1C8A
:1058E000D348784400EBC4000F9690ED00CB9DEDBB
:1058F0000E0B53EC1C2B51EC100B04F0DFF99DED5B
:105900000E0B41EC1B0B53EC1C2B51EC100B03F05A
:105910004FFD41EC100B51EC190B53EC102B03F025
:1059200003FE41EC1D0B51EC1B0B53EC1D2B03F044
:10593000B9FF41EC1A0BBF488DED10AB78441095C0
:1059400090ED000B4FF0005040EA660000EB844001
:105950008DED080B00F5002009909DED080B53EC30
:105960001C2B51EC100B04F0A9F99DED0E1B53EC10
:10597000112B04F0CBF841EC100B53EC102B9DEDE8
:10598000100B51EC100B03F08DFF9DED080B41EC5B
:105990001C0B53EC102B9DED100B51EC100B03F076
:1059A00081FF53EC1B2B04F0B1F853EC1C2B04F0DB
:1059B00085F953EC1D2B03F075FF41EC1C0B53ECE8
:1059C0001A2B51EC1A0B03F06DFF41EC1B0B9A489C
:1059D0000621B0EE4B0AF0EE6B0A784400F0E0FAD4
:1059E000B0EE401AF0EE601AB0EE41DAF0EE61DA95
:1059F00053EC1B2B51EC1B0B03F054FF53EC1D2BF2
:105A000003F050FF9DED100B41EC1B0B53EC1A2BD8
:105A100051EC100B03F0CCFC53EC1C2B03F042FFB9
:105A200053EC1B2B03F0C4FC9DED100B41EC1B0B46
:105A300053EC102B51EC100B03F034FF41EC1D0B19
:105A40009FED7FEB53EC1E2B03F0B2FC53EC1B2BB2
:105A500003F0AEFC0890CDE908519DED080B53EC26
:105A60001E2B51EC100B04F029F953EC1D2B04F004
:105A700025F953EC1B2B04F049F89DED080B41EC84
:105A80001D0B53EC102B9DED100B51EC100B03F084
:105A900009FF41EC1B0B53EC1A2B51EC1D0B03F0CF
:105AA00001FF9DED080B41EC1A0B53EC102B51EC50
:105AB0001C0B03F0F7FE53EC1A2B03F079FC41ECBE
:105AC0001A0B51EC1B0B53EC1A2B03F071FC0C90CE
:105AD000CDE90C519DED0C0B53EC1B2B51EC100B35
